{
  "contractName": "ArtPurchase",
  "abi": [
    {
      "inputs": [],
      "stateMutability": "nonpayable",
      "type": "constructor"
    },
    {
      "inputs": [
        {
          "internalType": "string",
          "name": "_art_code",
          "type": "string"
        },
        {
          "internalType": "string",
          "name": "_email",
          "type": "string"
        }
      ],
      "name": "buyArt",
      "outputs": [],
      "stateMutability": "payable",
      "type": "function",
      "payable": true
    }
  ],
  "bytecode": "0x608060405234801561001057600080fd5b50336000806101000a81548173ffffffffffffffffffffffffffffffffffffffff021916908373ffffffffffffffffffffffffffffffffffffffff1602179055506104f7806100606000396000f3fe60806040526004361061001e5760003560e01c806310f0abab14610023575b600080fd5b61003d60048036038101906100389190610357565b61003f565b005b60405180604001604052803373ffffffffffffffffffffffffffffffffffffffff1681526020018281525060018360405161007a9190610449565b908152602001604051809103902060008201518160000160006101000a81548173ffffffffffffffffffffffffffffffffffffffff021916908373ffffffffffffffffffffffffffffffffffffffff16021790555060208201518160010190805190602001906100eb92919061015a565b5090505060008054906101000a900473ffffffffffffffffffffffffffffffffffffffff1673ffffffffffffffffffffffffffffffffffffffff166108fc349081150290604051600060405180830381858888f19350505050158015610155573d6000803e3d6000fd5b505050565b8280546101669061048f565b90600052602060002090601f01602090048101928261018857600085556101cf565b82601f106101a157805160ff19168380011785556101cf565b828001600101855582156101cf579182015b828111156101ce5782518255916020019190600101906101b3565b5b5090506101dc91906101e0565b5090565b5b808211156101f95760008160009055506001016101e1565b5090565b6000604051905090565b600080fd5b600080fd5b600080fd5b600080fd5b6000601f19601f8301169050919050565b7f4e487b7100000000000000000000000000000000000000000000000000000000600052604160045260246000fd5b6102648261021b565b810181811067ffffffffffffffff821117156102835761028261022c565b5b80604052505050565b60006102966101fd565b90506102a2828261025b565b919050565b600067ffffffffffffffff8211156102c2576102c161022c565b5b6102cb8261021b565b9050602081019050919050565b82818337600083830152505050565b60006102fa6102f5846102a7565b61028c565b90508281526020810184848401111561031657610315610216565b5b6103218482856102d8565b509392505050565b600082601f83011261033e5761033d610211565b5b813561034e8482602086016102e7565b91505092915050565b6000806040838503121561036e5761036d610207565b5b600083013567ffffffffffffffff81111561038c5761038b61020c565b5b61039885828601610329565b925050602083013567ffffffffffffffff8111156103b9576103b861020c565b5b6103c585828601610329565b9150509250929050565b600081519050919050565b600081905092915050565b60005b838110156104035780820151818401526020810190506103e8565b83811115610412576000848401525b50505050565b6000610423826103cf565b61042d81856103da565b935061043d8185602086016103e5565b80840191505092915050565b60006104558284610418565b915081905092915050565b7f4e487b7100000000000000000000000000000000000000000000000000000000600052602260045260246000fd5b600060028204905060018216806104a757607f821691505b602082108114156104bb576104ba610460565b5b5091905056fea2646970667358221220e7b5b55dc171873480e606d697b928538a78ccb0a62bc613e5da9d9dc9ae166364736f6c634300080a0033",
  "immutableReferences": {},
  "source": "// SPDX-License-Identifier: MIT\r\npragma solidity >=0.4.22 <0.9.0;\r\n\r\ncontract ArtPurchase {\r\n    address payable owner; //Gallery360  \r\n    \r\n    struct Buyer {\r\n        address buyerAddress;\r\n        string email;\r\n    }\r\n\r\n    mapping (string => Buyer) buyerInfo;\r\n\r\n    constructor() {\r\n        owner = payable(msg.sender);\r\n    }\r\n\r\n    function buyArt(string memory _art_code, string memory _email) public payable {\r\n        buyerInfo[_art_code] = Buyer(msg.sender, _email);\r\n        owner.transfer(msg.value);\r\n    }\r\n}",
  "sourcePath": "D:\\Artic\\blockchain\\g360\\contracts\\ArtPurchase.sol",
  "compiler": {
    "name": "solc",
    "version": "0.8.10+commit.fc410830.Emscripten.clang"
  },
  "schemaVersion": "3.4.3",
  "updatedAt": "2021-11-29T11:08:49.209Z",
  "networkType": "ethereum",
  "devdoc": {
    "kind": "dev",
    "methods": {},
    "version": 1
  },
  "userdoc": {
    "kind": "user",
    "methods": {},
    "version": 1
  }
}